{
  "contractName": "App",
  "abi": [
    {
      "inputs": [],
      "stateMutability": "nonpayable",
      "type": "constructor"
    },
    {
      "inputs": [
        {
          "internalType": "uint256",
          "name": "",
          "type": "uint256"
        }
      ],
      "name": "players",
      "outputs": [
        {
          "internalType": "address payable",
          "name": "",
          "type": "address"
        }
      ],
      "stateMutability": "view",
      "type": "function",
      "constant": true
    },
    {
      "inputs": [],
      "name": "winner",
      "outputs": [
        {
          "internalType": "address payable",
          "name": "",
          "type": "address"
        }
      ],
      "stateMutability": "view",
      "type": "function",
      "constant": true
    },
    {
      "stateMutability": "payable",
      "type": "receive",
      "payable": true
    },
    {
      "inputs": [],
      "name": "getBalance",
      "outputs": [
        {
          "internalType": "uint256",
          "name": "",
          "type": "uint256"
        }
      ],
      "stateMutability": "view",
      "type": "function",
      "constant": true
    },
    {
      "inputs": [],
      "name": "pickWinner",
      "outputs": [],
      "stateMutability": "nonpayable",
      "type": "function"
    }
  ],
  "bytecode": "0x608060405234801561001057600080fd5b50336000806101000a81548173ffffffffffffffffffffffffffffffffffffffff021916908373ffffffffffffffffffffffffffffffffffffffff160217905550610962806100606000396000f3fe6080604052600436106100435760003560e01c806312065fe0146100fc5780635d495aea14610127578063dfbf53ae1461013e578063f71d96cb14610169576100f7565b366100f757670de0b6b3a76400003414610092576040517f08c379a00000000000000000000000000000000000000000000000000000000081526004016100899061062a565b60405180910390fd5b6001339080600181540180825580915050600190039060005260206000200160009091909190916101000a81548173ffffffffffffffffffffffffffffffffffffffff021916908373ffffffffffffffffffffffffffffffffffffffff160217905550005b600080fd5b34801561010857600080fd5b506101116101a6565b60405161011e9190610663565b60405180910390f35b34801561013357600080fd5b5061013c61023c565b005b34801561014a57600080fd5b50610153610487565b60405161016091906106bf565b60405180910390f35b34801561017557600080fd5b50610190600480360381019061018b919061070b565b6104ad565b60405161019d91906106bf565b60405180910390f35b60003373ffffffffffffffffffffffffffffffffffffffff1660008054906101000a900473ffffffffffffffffffffffffffffffffffffffff1673ffffffffffffffffffffffffffffffffffffffff1614610236576040517f08c379a000000000000000000000000000000000000000000000000000000000815260040161022d90610784565b60405180910390fd5b47905090565b60008054906101000a900473ffffffffffffffffffffffffffffffffffffffff1673ffffffffffffffffffffffffffffffffffffffff163373ffffffffffffffffffffffffffffffffffffffff16146102ca576040517f08c379a00000000000000000000000000000000000000000000000000000000081526004016102c190610784565b60405180910390fd5b60026001805490501015610313576040517f08c379a000000000000000000000000000000000000000000000000000000000815260040161030a906107f0565b60405180910390fd5b600061031d6104ec565b9050600060018054905082610332919061083f565b90506001818154811061034857610347610870565b5b9060005260206000200160009054906101000a900473ffffffffffffffffffffffffffffffffffffffff16600260006101000a81548173ffffffffffffffffffffffffffffffffffffffff021916908373ffffffffffffffffffffffffffffffffffffffff160217905550600260009054906101000a900473ffffffffffffffffffffffffffffffffffffffff1673ffffffffffffffffffffffffffffffffffffffff166108fc6103f76101a6565b9081150290604051600060405180830381858888f19350505050158015610422573d6000803e3d6000fd5b50600067ffffffffffffffff81111561043e5761043d61089f565b5b60405190808252806020026020018201604052801561046c5781602001602082028036833780820191505090505b5060019080519060200190610482929190610526565b505050565b600260009054906101000a900473ffffffffffffffffffffffffffffffffffffffff1681565b600181815481106104bd57600080fd5b906000526020600020016000915054906101000a900473ffffffffffffffffffffffffffffffffffffffff1681565b60004442600180549050604051602001610508939291906108ef565b6040516020818303038152906040528051906020012060001c905090565b82805482825590600052602060002090810192821561059f579160200282015b8281111561059e5782518260006101000a81548173ffffffffffffffffffffffffffffffffffffffff021916908373ffffffffffffffffffffffffffffffffffffffff16021790555091602001919060010190610546565b5b5090506105ac91906105b0565b5090565b5b808211156105c95760008160009055506001016105b1565b5090565b600082825260208201905092915050565b7f506c65617365207061792031206574686572206f6e6c79000000000000000000600082015250565b60006106146017836105cd565b915061061f826105de565b602082019050919050565b6000602082019050818103600083015261064381610607565b9050919050565b6000819050919050565b61065d8161064a565b82525050565b60006020820190506106786000830184610654565b92915050565b600073ffffffffffffffffffffffffffffffffffffffff82169050919050565b60006106a98261067e565b9050919050565b6106b98161069e565b82525050565b60006020820190506106d460008301846106b0565b92915050565b600080fd5b6106e88161064a565b81146106f357600080fd5b50565b600081359050610705816106df565b92915050565b600060208284031215610721576107206106da565b5b600061072f848285016106f6565b91505092915050565b7f596f7520617265206e6f7420746865206d616e61676572000000000000000000600082015250565b600061076e6017836105cd565b915061077982610738565b602082019050919050565b6000602082019050818103600083015261079d81610761565b9050919050565b7f506c617965727320617265206c657373207468616e2032000000000000000000600082015250565b60006107da6017836105cd565b91506107e5826107a4565b602082019050919050565b60006020820190508181036000830152610809816107cd565b9050919050565b7f4e487b7100000000000000000000000000000000000000000000000000000000600052601260045260246000fd5b600061084a8261064a565b91506108558361064a565b92508261086557610864610810565b5b828206905092915050565b7f4e487b7100000000000000000000000000000000000000000000000000000000600052603260045260246000fd5b7f4e487b7100000000000000000000000000000000000000000000000000000000600052604160045260246000fd5b6000819050919050565b6108e96108e48261064a565b6108ce565b82525050565b60006108fb82866108d8565b60208201915061090b82856108d8565b60208201915061091b82846108d8565b60208201915081905094935050505056fea264697066735822122031806c93970ab9286b00e6a168188ae7e515a798640d0c65d5e01f1447a0bd4864736f6c634300080b0033",
  "immutableReferences": {},
  "source": "// SPDX-License-Identifier: MIT\npragma solidity >=0.5.0 <0.9.0;\n\ncontract Lottery {\n    \n    address manager;\n\n    address payable[] public players; \n    address payable public winner;\n\n    constructor(){\n    manager = msg.sender;\n    }\n\n    receive() external payable{ \n        require(msg.value==1 ether, \"Please pay 1 ether only\"); \n        players.push(payable(msg.sender));\n    }\n\n    function getBalance() public view returns (uint){ \n        require(manager==msg.sender, \"You are not the manager\");\n        return address(this).balance;\n    }\n\n    function random() internal view returns(uint){ \n        return uint(keccak256(abi.encodePacked (block.difficulty, block.timestamp,players.length)));\n    }\n\n    function pickWinner() public {\n        require(msg.sender==manager, \"You are not the manager\"); \n        require(players.length>=2, \"Players are less than 2\");\n\n        uint r = random();\n        uint index = r%players.length; //remainder <players.length\n        winner = players[index];\n        winner.transfer (getBalance());\n        players = new address payable[](0);\n    }\n\n}",
  "sourcePath": "F:\\Lottery_Dapp_BCT\\contracts\\Lottery.sol",
  "compiler": {
    "name": "solc",
    "version": "0.8.11+commit.d7f03943.Emscripten.clang"
  },
  "schemaVersion": "3.4.11",
  "updatedAt": "2022-12-01T14:52:54.247Z",
  "networkType": "ethereum",
  "devdoc": {
    "kind": "dev",
    "methods": {},
    "version": 1
  },
  "userdoc": {
    "kind": "user",
    "methods": {},
    "version": 1
  }
}